{
  "contractName": "Marketplace",
  "abi": [
    {
      "inputs": [],
      "stateMutability": "nonpayable",
      "type": "constructor"
    },
    {
      "stateMutability": "payable",
      "type": "receive",
      "payable": true
    },
    {
      "inputs": [],
      "name": "frozenContract",
      "outputs": [],
      "stateMutability": "nonpayable",
      "type": "function"
    },
    {
      "inputs": [],
      "name": "unFrozenContract",
      "outputs": [],
      "stateMutability": "nonpayable",
      "type": "function"
    },
    {
      "inputs": [
        {
          "internalType": "uint256",
          "name": "value",
          "type": "uint256"
        }
      ],
      "name": "withdraw",
      "outputs": [],
      "stateMutability": "nonpayable",
      "type": "function"
    },
    {
      "inputs": [],
      "name": "allWithdraw",
      "outputs": [],
      "stateMutability": "nonpayable",
      "type": "function"
    },
    {
      "inputs": [],
      "name": "selfDestruct",
      "outputs": [],
      "stateMutability": "nonpayable",
      "type": "function"
    },
    {
      "inputs": [
        {
          "internalType": "bytes16",
          "name": "itemId",
          "type": "bytes16"
        },
        {
          "internalType": "bytes32",
          "name": "proof",
          "type": "bytes32"
        }
      ],
      "name": "purchaseItem",
      "outputs": [],
      "stateMutability": "payable",
      "type": "function",
      "payable": true
    },
    {
      "inputs": [
        {
          "internalType": "bytes32",
          "name": "hash",
          "type": "bytes32"
        }
      ],
      "name": "rePurchaseItem",
      "outputs": [],
      "stateMutability": "payable",
      "type": "function",
      "payable": true
    },
    {
      "inputs": [
        {
          "internalType": "uint256",
          "name": "id",
          "type": "uint256"
        }
      ],
      "name": "getItemHashByID",
      "outputs": [
        {
          "internalType": "bytes32",
          "name": "itemHash",
          "type": "bytes32"
        }
      ],
      "stateMutability": "view",
      "type": "function",
      "constant": true
    },
    {
      "inputs": [
        {
          "internalType": "address",
          "name": "newOwner",
          "type": "address"
        }
      ],
      "name": "transferOwneship",
      "outputs": [],
      "stateMutability": "nonpayable",
      "type": "function"
    },
    {
      "inputs": [
        {
          "internalType": "bytes32",
          "name": "hash",
          "type": "bytes32"
        }
      ],
      "name": "verifyItem",
      "outputs": [
        {
          "internalType": "bool",
          "name": "",
          "type": "bool"
        }
      ],
      "stateMutability": "nonpayable",
      "type": "function"
    },
    {
      "inputs": [
        {
          "internalType": "bytes32",
          "name": "hash",
          "type": "bytes32"
        }
      ],
      "name": "deactivateItem",
      "outputs": [],
      "stateMutability": "nonpayable",
      "type": "function"
    },
    {
      "inputs": [
        {
          "internalType": "bytes32",
          "name": "itemHash",
          "type": "bytes32"
        }
      ],
      "name": "getItemDataByHash",
      "outputs": [
        {
          "components": [
            {
              "internalType": "uint256",
              "name": "id",
              "type": "uint256"
            },
            {
              "internalType": "uint256",
              "name": "price",
              "type": "uint256"
            },
            {
              "internalType": "address",
              "name": "owner",
              "type": "address"
            },
            {
              "internalType": "bytes32",
              "name": "proof",
              "type": "bytes32"
            },
            {
              "internalType": "bytes16",
              "name": "itemId",
              "type": "bytes16"
            },
            {
              "internalType": "enum Marketplace.State",
              "name": "state",
              "type": "uint8"
            }
          ],
          "internalType": "struct Marketplace.ItemStruct",
          "name": "",
          "type": "tuple"
        }
      ],
      "stateMutability": "view",
      "type": "function",
      "constant": true
    },
    {
      "inputs": [],
      "name": "getTotalCount",
      "outputs": [
        {
          "internalType": "uint256",
          "name": "total",
          "type": "uint256"
        }
      ],
      "stateMutability": "view",
      "type": "function",
      "constant": true
    },
    {
      "inputs": [],
      "name": "getOwner",
      "outputs": [
        {
          "internalType": "address",
          "name": "",
          "type": "address"
        }
      ],
      "stateMutability": "view",
      "type": "function",
      "constant": true
    }
  ],
  "bytecode": "0x60806040526000600360146101000a81548160ff02191690831515021790555034801561002b57600080fd5b5061003b3361004060201b60201c565b610084565b80600360006101000a81548173ffffffffffffffffffffffffffffffffffffffff021916908373ffffffffffffffffffffffffffffffffffffffff16021790555050565b611cd7806100936000396000f3fe6080604052600436106100e15760003560e01c8063743f719b1161007f5780639cb8a26a116100595780639cb8a26a14610275578063b8e5c7571461028c578063bd7d8149146102a3578063db3734b6146102cc576100e8565b8063743f719b146101e4578063757cc94214610221578063893d20e81461024a576100e8565b80632e1a7d4d116100bb5780632e1a7d4d1461015d5780633472c25f1461018657806356d42bb31461019d578063592f9006146101c8576100e8565b806313517231146100ed57806314aceccf1461012a57806329c3169e14610141576100e8565b366100e857005b600080fd5b3480156100f957600080fd5b50610114600480360381019061010f91906112e9565b610309565b60405161012191906114ac565b60405180910390f35b34801561013657600080fd5b5061013f610422565b005b61015b600480360381019061015691906112e9565b6104b4565b005b34801561016957600080fd5b50610184600480360381019061017f91906114f3565b61060c565b005b34801561019257600080fd5b5061019b610753565b005b3480156101a957600080fd5b506101b26107e5565b6040516101bf919061152f565b60405180910390f35b6101e260048036038101906101dd9190611576565b6107ef565b005b3480156101f057600080fd5b5061020b600480360381019061020691906114f3565b6109e1565b60405161021891906115c5565b60405180910390f35b34801561022d57600080fd5b50610248600480360381019061024391906112e9565b6109fd565b005b34801561025657600080fd5b5061025f610c59565b60405161026c91906115ef565b60405180910390f35b34801561028157600080fd5b5061028a610c83565b005b34801561029857600080fd5b506102a1610d82565b005b3480156102af57600080fd5b506102ca60048036038101906102c59190611636565b610f17565b005b3480156102d857600080fd5b506102f360048036038101906102ee91906112e9565b610f98565b604051610300919061167e565b60405180910390f35b61031161123a565b600160008381526020019081526020016000206040518060c001604052908160008201548152602001600182015481526020016002820160009054906101000a900473ffffffffffffffffffffffffffffffffffffffff1673ffffffffffffffffffffffffffffffffffffffff1673ffffffffffffffffffffffffffffffffffffffff168152602001600382015481526020016004820160009054906101000a900460801b6fffffffffffffffffffffffffffffffff19166fffffffffffffffffffffffffffffffff191681526020016004820160109054906101000a900460ff166002811115610405576104046113ba565b5b6002811115610417576104166113ba565b5b815250509050919050565b61042a610c59565b73ffffffffffffffffffffffffffffffffffffffff163373ffffffffffffffffffffffffffffffffffffffff1614610497576040517f08c379a000000000000000000000000000000000000000000000000000000000815260040161048e906116f6565b60405180910390fd5b6000600360146101000a81548160ff021916908315150217905550565b6104bd81611119565b6104fc576040517f08c379a00000000000000000000000000000000000000000000000000000000081526004016104f390611762565b60405180910390fd5b61050581611188565b610544576040517f08c379a000000000000000000000000000000000000000000000000000000000815260040161053b906117ce565b60405180910390fd5b600060016000838152602001908152602001600020905060028081111561056e5761056d6113ba565b5b8160040160109054906101000a900460ff166002811115610592576105916113ba565b5b146105d2576040517f08c379a00000000000000000000000000000000000000000000000000000000081526004016105c99061183a565b60405180910390fd5b60008160040160106101000a81548160ff021916908360028111156105fa576105f96113ba565b5b02179055503481600101819055505050565b610614610c59565b73ffffffffffffffffffffffffffffffffffffffff163373ffffffffffffffffffffffffffffffffffffffff1614610681576040517f08c379a0000000000000000000000000000000000000000000000000000000008152600401610678906116f6565b60405180910390fd5b6000600360009054906101000a900473ffffffffffffffffffffffffffffffffffffffff1673ffffffffffffffffffffffffffffffffffffffff16826040516106c99061188b565b60006040518083038185875af1925050503d8060008114610706576040519150601f19603f3d011682016040523d82523d6000602084013e61070b565b606091505b505090508061074f576040517f08c379a0000000000000000000000000000000000000000000000000000000008152600401610746906118ec565b60405180910390fd5b5050565b61075b610c59565b73ffffffffffffffffffffffffffffffffffffffff163373ffffffffffffffffffffffffffffffffffffffff16146107c8576040517f08c379a00000000000000000000000000000000000000000000000000000000081526004016107bf906116f6565b60405180910390fd5b6001600360146101000a81548160ff021916908315150217905550565b6000600254905090565b60008233604051602001610804929190611975565b60405160208183030381529060405280519060200120905061082581611188565b15610865576040517f08c379a000000000000000000000000000000000000000000000000000000000815260040161085c906116f6565b60405180910390fd5b60006002600081548092919061087a906119d0565b91905055905081600080838152602001908152602001600020819055506040518060c001604052808281526020013481526020013373ffffffffffffffffffffffffffffffffffffffff168152602001848152602001856fffffffffffffffffffffffffffffffff19168152602001600060028111156108fd576108fc6113ba565b5b81525060016000848152602001908152602001600020600082015181600001556020820151816001015560408201518160020160006101000a81548173ffffffffffffffffffffffffffffffffffffffff021916908373ffffffffffffffffffffffffffffffffffffffff1602179055506060820151816003015560808201518160040160006101000a8154816fffffffffffffffffffffffffffffffff021916908360801c021790555060a08201518160040160106101000a81548160ff021916908360028111156109d3576109d26113ba565b5b021790555090505050505050565b6000806000838152602001908152602001600020549050919050565b610a05610c59565b73ffffffffffffffffffffffffffffffffffffffff163373ffffffffffffffffffffffffffffffffffffffff1614610a72576040517f08c379a0000000000000000000000000000000000000000000000000000000008152600401610a69906116f6565b60405180910390fd5b610a7b81611119565b610aba576040517f08c379a0000000000000000000000000000000000000000000000000000000008152600401610ab190611762565b60405180910390fd5b600060016000838152602001908152602001600020905060006002811115610ae557610ae46113ba565b5b8160040160109054906101000a900460ff166002811115610b0957610b086113ba565b5b14610b49576040517f08c379a0000000000000000000000000000000000000000000000000000000008152600401610b4090611a65565b60405180910390fd5b60008160020160009054906101000a900473ffffffffffffffffffffffffffffffffffffffff1673ffffffffffffffffffffffffffffffffffffffff168260010154604051610b979061188b565b60006040518083038185875af1925050503d8060008114610bd4576040519150601f19603f3d011682016040523d82523d6000602084013e610bd9565b606091505b5050905080610c1d576040517f08c379a0000000000000000000000000000000000000000000000000000000008152600401610c1490611ad1565b60405180910390fd5b60028260040160106101000a81548160ff02191690836002811115610c4557610c446113ba565b5b021790555060008260010181905550505050565b6000600360009054906101000a900473ffffffffffffffffffffffffffffffffffffffff16905090565b610c8b610c59565b73ffffffffffffffffffffffffffffffffffffffff163373ffffffffffffffffffffffffffffffffffffffff1614610cf8576040517f08c379a0000000000000000000000000000000000000000000000000000000008152600401610cef906116f6565b60405180910390fd5b600360149054906101000a900460ff16610d47576040517f08c379a0000000000000000000000000000000000000000000000000000000008152600401610d3e90611b3d565b60405180910390fd5b600360009054906101000a900473ffffffffffffffffffffffffffffffffffffffff1673ffffffffffffffffffffffffffffffffffffffff16ff5b610d8a610c59565b73ffffffffffffffffffffffffffffffffffffffff163373ffffffffffffffffffffffffffffffffffffffff1614610df7576040517f08c379a0000000000000000000000000000000000000000000000000000000008152600401610dee906116f6565b60405180910390fd5b600360149054906101000a900460ff16610e46576040517f08c379a0000000000000000000000000000000000000000000000000000000008152600401610e3d90611b3d565b60405180910390fd5b6000600360009054906101000a900473ffffffffffffffffffffffffffffffffffffffff1673ffffffffffffffffffffffffffffffffffffffff1647604051610e8e9061188b565b60006040518083038185875af1925050503d8060008114610ecb576040519150601f19603f3d011682016040523d82523d6000602084013e610ed0565b606091505b5050905080610f14576040517f08c379a0000000000000000000000000000000000000000000000000000000008152600401610f0b90611ba9565b60405180910390fd5b50565b610f1f610c59565b73ffffffffffffffffffffffffffffffffffffffff163373ffffffffffffffffffffffffffffffffffffffff1614610f8c576040517f08c379a0000000000000000000000000000000000000000000000000000000008152600401610f83906116f6565b60405180910390fd5b610f95816111f6565b50565b6000610fa2610c59565b73ffffffffffffffffffffffffffffffffffffffff163373ffffffffffffffffffffffffffffffffffffffff161461100f576040517f08c379a0000000000000000000000000000000000000000000000000000000008152600401611006906116f6565b60405180910390fd5b61101882611119565b611057576040517f08c379a000000000000000000000000000000000000000000000000000000000815260040161104e90611c15565b60405180910390fd5b600060016000848152602001908152602001600020905060006002811115611082576110816113ba565b5b8160040160109054906101000a900460ff1660028111156110a6576110a56113ba565b5b146110e6576040517f08c379a00000000000000000000000000000000000000000000000000000000081526004016110dd90611c81565b60405180910390fd5b60018160040160106101000a81548160ff0219169083600281111561110e5761110d6113ba565b5b021790555050919050565b60008073ffffffffffffffffffffffffffffffffffffffff166001600084815260200190815260200160002060020160009054906101000a900473ffffffffffffffffffffffffffffffffffffffff1673ffffffffffffffffffffffffffffffffffffffff1614159050919050565b60003373ffffffffffffffffffffffffffffffffffffffff166001600084815260200190815260200160002060020160009054906101000a900473ffffffffffffffffffffffffffffffffffffffff1673ffffffffffffffffffffffffffffffffffffffff16149050919050565b80600360006101000a81548173ffffffffffffffffffffffffffffffffffffffff021916908373ffffffffffffffffffffffffffffffffffffffff16021790555050565b6040518060c001604052806000815260200160008152602001600073ffffffffffffffffffffffffffffffffffffffff1681526020016000801916815260200160006fffffffffffffffffffffffffffffffff19168152602001600060028111156112a8576112a76113ba565b5b81525090565b600080fd5b6000819050919050565b6112c6816112b3565b81146112d157600080fd5b50565b6000813590506112e3816112bd565b92915050565b6000602082840312156112ff576112fe6112ae565b5b600061130d848285016112d4565b91505092915050565b6000819050919050565b61132981611316565b82525050565b600073ffffffffffffffffffffffffffffffffffffffff82169050919050565b600061135a8261132f565b9050919050565b61136a8161134f565b82525050565b611379816112b3565b82525050565b60007fffffffffffffffffffffffffffffffff0000000000000000000000000000000082169050919050565b6113b48161137f565b82525050565b7f4e487b7100000000000000000000000000000000000000000000000000000000600052602160045260246000fd5b600381106113fa576113f96113ba565b5b50565b600081905061140b826113e9565b919050565b600061141b826113fd565b9050919050565b61142b81611410565b82525050565b60c0820160008201516114476000850182611320565b50602082015161145a6020850182611320565b50604082015161146d6040850182611361565b5060608201516114806060850182611370565b50608082015161149360808501826113ab565b5060a08201516114a660a0850182611422565b50505050565b600060c0820190506114c16000830184611431565b92915050565b6114d081611316565b81146114db57600080fd5b50565b6000813590506114ed816114c7565b92915050565b600060208284031215611509576115086112ae565b5b6000611517848285016114de565b91505092915050565b61152981611316565b82525050565b60006020820190506115446000830184611520565b92915050565b6115538161137f565b811461155e57600080fd5b50565b6000813590506115708161154a565b92915050565b6000806040838503121561158d5761158c6112ae565b5b600061159b85828601611561565b92505060206115ac858286016112d4565b9150509250929050565b6115bf816112b3565b82525050565b60006020820190506115da60008301846115b6565b92915050565b6115e98161134f565b82525050565b600060208201905061160460008301846115e0565b92915050565b6116138161134f565b811461161e57600080fd5b50565b6000813590506116308161160a565b92915050565b60006020828403121561164c5761164b6112ae565b5b600061165a84828501611621565b91505092915050565b60008115159050919050565b61167881611663565b82525050565b6000602082019050611693600083018461166f565b92915050565b600082825260208201905092915050565b7f6572726f72000000000000000000000000000000000000000000000000000000600082015250565b60006116e0600583611699565b91506116eb826116aa565b602082019050919050565b6000602082019050818103600083015261170f816116d3565b9050919050565b7f646f65736e277420696e636c756465206974656d000000000000000000000000600082015250565b600061174c601483611699565b915061175782611716565b602082019050919050565b6000602082019050818103600083015261177b8161173f565b9050919050565b7f6e6f77206f776e65640000000000000000000000000000000000000000000000600082015250565b60006117b8600983611699565b91506117c382611782565b602082019050919050565b600060208201905081810360008301526117e7816117ab565b9050919050565b7f696e636f72726563742073746174650000000000000000000000000000000000600082015250565b6000611824600f83611699565b915061182f826117ee565b602082019050919050565b6000602082019050818103600083015261185381611817565b9050919050565b600081905092915050565b50565b600061187560008361185a565b915061188082611865565b600082019050919050565b600061189682611868565b9150819050919050565b7f6e6f7420656e6f7567682062616c616e636520696e20636f6e74726163740000600082015250565b60006118d6601e83611699565b91506118e1826118a0565b602082019050919050565b60006020820190508181036000830152611905816118c9565b9050919050565b6000819050919050565b6119276119228261137f565b61190c565b82525050565b60008160601b9050919050565b60006119458261192d565b9050919050565b60006119578261193a565b9050919050565b61196f61196a8261134f565b61194c565b82525050565b60006119818285611916565b601082019150611991828461195e565b6014820191508190509392505050565b7f4e487b7100000000000000000000000000000000000000000000000000000000600052601160045260246000fd5b60006119db82611316565b91507fffffffffffffffffffffffffffffffffffffffffffffffffffffffffffffffff821415611a0e57611a0d6119a1565b5b600182019050919050565b7f73746174652069736e2774207075726368617365640000000000000000000000600082015250565b6000611a4f601583611699565b9150611a5a82611a19565b602082019050919050565b60006020820190508181036000830152611a7e81611a42565b9050919050565b7f7472616e73616374696f6e206661696c65640000000000000000000000000000600082015250565b6000611abb601283611699565b9150611ac682611a85565b602082019050919050565b60006020820190508181036000830152611aea81611aae565b9050919050565b7f6f6e6c7920757365207768656e20636f6e74726163742069732066726f7a656e600082015250565b6000611b27602083611699565b9150611b3282611af1565b602082019050919050565b60006020820190508181036000830152611b5681611b1a565b9050919050565b7f63616e27742073656e6420736f6d652065746865720000000000000000000000600082015250565b6000611b93601583611699565b9150611b9e82611b5d565b602082019050919050565b60006020820190508181036000830152611bc281611b86565b9050919050565b7f6572726f723a206974656d20646f65736e277420657869737473000000000000600082015250565b6000611bff601a83611699565b9150611c0a82611bc9565b602082019050919050565b60006020820190508181036000830152611c2e81611bf2565b9050919050565b7f696e636f7272726563742073746174652076616c756500000000000000000000600082015250565b6000611c6b601683611699565b9150611c7682611c35565b602082019050919050565b60006020820190508181036000830152611c9a81611c5e565b905091905056fea26469706673582212207817e7a9e2393b590cccfaa814845b1bba233065feefb3572321884d5589497c64736f6c634300080b0033",
  "immutableReferences": {},
  "source": "pragma solidity >=0.4.22 <0.9.0;\npragma experimental ABIEncoderV2;\n\n\ncontract Marketplace {\n    enum State {Purchased, Activated, Deactivated}\n\n    struct ItemStruct {\n        uint256 id; //32\n        uint256 price; //32\n        address owner; // 20\n        bytes32 proof; //32\n        bytes16 itemId;\n        State state; //1\n    }\n    mapping(uint256 => bytes32) private ownedItemHash; // Id => itemHash\n    mapping(bytes32 => ItemStruct) private ownedItem; // itemHash => itemData\n\n    uint256 private totalOwned;\n    address payable private owner;\n    bool private isFrozen = false;\n\n\n    constructor () {\n        changeOwner(msg.sender);\n    }\n\n    receive () external payable {}\n\n    modifier onlyOwner () {\n        if(msg.sender != getOwner()) {\n            revert(\"error\");\n        }\n        _;\n    }\n\n    function frozenContract () external onlyOwner {\n          isFrozen = true;\n    }\n\n    function unFrozenContract () external onlyOwner {\n        isFrozen = false;\n    }\n\n\n    modifier onlyWhenFrozen () {\n        require(isFrozen, \"only use when contract is frozen\");\n        _;\n    }\n\n    function withdraw (uint value) external onlyOwner {\n             (bool success, )  = owner.call{value: value}(\"\");\n             require(success, \"not enough balance in contract\");           \n   }\n\n    function allWithdraw ()  external onlyOwner onlyWhenFrozen {\n         (bool success, ) = owner.call{value: address(this).balance}(\"\");\n         require(success, \"can't send some ether\");\n   }\n\n    function selfDestruct () external onlyOwner  onlyWhenFrozen {\n       selfdestruct(owner);\n   }\n    \n    function purchaseItem(bytes16 itemId, bytes32 proof) external payable {\n        bytes32 hashItem = keccak256(abi.encodePacked(itemId, msg.sender));\n\n        if (alreadyOwned(hashItem)) {\n              revert(\"error\");\n        }\n\n        uint256 id = totalOwned++;\n        \n\n        ownedItemHash[id] = hashItem;\n        ownedItem[hashItem] = ItemStruct({\n            id: id,\n            itemId: itemId,\n            price: msg.value,\n            owner: msg.sender,\n            proof: proof,\n            state: State.Purchased\n        });\n    }\n\n\n    function rePurchaseItem (bytes32 hash) external payable {\n         \n        if(!ifItemCreated(hash)) {\n            revert(\"doesn't include item\");\n        }\n\n        if(!alreadyOwned(hash)) {\n            revert(\"now owned\");\n        }\n\n        ItemStruct storage item =  ownedItem[hash];\n\n            if(item.state !=  State.Deactivated) {\n                revert(\"incorrect state\");\n            }\n\n      item.state = State.Purchased;\n      item.price = msg.value;\n\n    }\n\n    function getItemHashByID(uint256 id)\n        external\n        view\n        returns (bytes32 itemHash)\n    {\n        return ownedItemHash[id];\n    }\n\n   \n\n    function transferOwneship (address newOwner) external onlyOwner {\n        changeOwner(newOwner);\n    }\n    \n    function verifyItem (bytes32 hash) external onlyOwner returns(bool) {\n      if(!ifItemCreated(hash)) {  revert(\"error: item doesn't exists\");}\n\n      ItemStruct storage item = ownedItem[hash];\n\n      if(item.state != State.Purchased) {\n          revert(\"incorrrect state value\");\n      }\n      item.state = State.Activated;\n    }\n    \n\n    function deactivateItem (bytes32 hash) external onlyOwner {\n        if(!ifItemCreated(hash) ) {\n              revert(\"doesn't include item\");\n        }\n\n        ItemStruct storage item = ownedItem[hash];\n\n          if(item.state != State.Purchased) {\n              revert(\"state isn't purchased\");\n          }\n\n          (bool success, ) = item.owner.call{value: item.price}(\"\");\n          require(success, \"transaction failed\");\n\n          item.state = State.Deactivated;\n          item.price = 0;\n\n\n    }\n\n     function getItemDataByHash(bytes32 itemHash)\n        external\n        view\n        returns (ItemStruct memory)\n    {\n        return ownedItem[itemHash];\n    }\n\n    function ifItemCreated (bytes32 hash) private view returns(bool) {\n        return ownedItem[hash].owner != 0x0000000000000000000000000000000000000000;\n    }\n\n    function getTotalCount() external view returns (uint256 total) {\n        return totalOwned;\n    }\n\n    function alreadyOwned(bytes32 ownedHash) private view returns (bool) {\n        return ownedItem[ownedHash].owner == msg.sender;\n    }\n\n     function getOwner() public view returns(address){\n        return owner;\n    }\n\n    function changeOwner (address newOwner) private {\n        owner = payable(newOwner);\n    }\n}\n\n\n  // itemID: 0x00000000000000000000000000000009\n    // proof:  0x0000000000000000000000000000000900000000000000000000000000000009\n\n    // hash 3d566ef6af5fc8e0207a8ee356c4bd5fb585d66fb40038317fcae62ff40c2dab\n// 00000000000000000000000000000D80\n\n\n  //itemID      0x00000000000000000000000000000009\n        //address.    0x5B38Da6a701c568545dCfcB03FcB875f56beddC4",
  "sourcePath": "/Users/kp/Desktop/marketETH/market_eth/contracts/Marketplace.sol",
  "compiler": {
    "name": "solc",
    "version": "0.8.11+commit.d7f03943.Emscripten.clang"
  },
  "schemaVersion": "3.4.7",
  "updatedAt": "2022-06-08T00:19:48.894Z",
  "networkType": "ethereum",
  "devdoc": {
    "kind": "dev",
    "methods": {},
    "version": 1
  },
  "userdoc": {
    "kind": "user",
    "methods": {},
    "version": 1
  }
}